{
  "contractName": "Blacklist",
  "abi": [
    {
      "anonymous": false,
      "inputs": [
        {
          "indexed": false,
          "internalType": "address",
          "name": "_address",
          "type": "address"
        }
      ],
      "name": "AddedBlacklist",
      "type": "event"
    },
    {
      "anonymous": false,
      "inputs": [
        {
          "indexed": false,
          "internalType": "address",
          "name": "_address",
          "type": "address"
        },
        {
          "indexed": false,
          "internalType": "uint256",
          "name": "_balance",
          "type": "uint256"
        }
      ],
      "name": "DestroyedBlacklistFunds",
      "type": "event"
    },
    {
      "anonymous": false,
      "inputs": [
        {
          "indexed": true,
          "internalType": "address",
          "name": "previousOwner",
          "type": "address"
        },
        {
          "indexed": true,
          "internalType": "address",
          "name": "newOwner",
          "type": "address"
        }
      ],
      "name": "OwnershipTransferred",
      "type": "event"
    },
    {
      "anonymous": false,
      "inputs": [
        {
          "indexed": false,
          "internalType": "address",
          "name": "_address",
          "type": "address"
        }
      ],
      "name": "RemovedBlacklist",
      "type": "event"
    },
    {
      "inputs": [
        {
          "internalType": "address",
          "name": "",
          "type": "address"
        }
      ],
      "name": "BlacklistAddresses",
      "outputs": [
        {
          "internalType": "bool",
          "name": "",
          "type": "bool"
        }
      ],
      "stateMutability": "view",
      "type": "function"
    },
    {
      "inputs": [],
      "name": "owner",
      "outputs": [
        {
          "internalType": "address",
          "name": "",
          "type": "address"
        }
      ],
      "stateMutability": "view",
      "type": "function"
    },
    {
      "inputs": [],
      "name": "renounceOwnership",
      "outputs": [],
      "stateMutability": "nonpayable",
      "type": "function"
    },
    {
      "inputs": [
        {
          "internalType": "address",
          "name": "newOwner",
          "type": "address"
        }
      ],
      "name": "transferOwnership",
      "outputs": [],
      "stateMutability": "nonpayable",
      "type": "function"
    },
    {
      "inputs": [
        {
          "internalType": "address",
          "name": "_address",
          "type": "address"
        }
      ],
      "name": "getBlacklistStatus",
      "outputs": [
        {
          "internalType": "bool",
          "name": "",
          "type": "bool"
        }
      ],
      "stateMutability": "view",
      "type": "function"
    },
    {
      "inputs": [
        {
          "internalType": "address",
          "name": "_address",
          "type": "address"
        }
      ],
      "name": "addBlacklist",
      "outputs": [],
      "stateMutability": "nonpayable",
      "type": "function"
    },
    {
      "inputs": [
        {
          "internalType": "address",
          "name": "_address",
          "type": "address"
        }
      ],
      "name": "removeBlackList",
      "outputs": [],
      "stateMutability": "nonpayable",
      "type": "function"
    },
    {
      "inputs": [
        {
          "internalType": "address",
          "name": "_address",
          "type": "address"
        }
      ],
      "name": "removeBlacklistFunds",
      "outputs": [],
      "stateMutability": "nonpayable",
      "type": "function"
    }
  ],
  "bytecode": "0x608060405234801561001057600080fd5b5061002d61002261003260201b60201c565b61003a60201b60201c565b6100fe565b600033905090565b60008060009054906101000a900473ffffffffffffffffffffffffffffffffffffffff169050816000806101000a81548173ffffffffffffffffffffffffffffffffffffffff021916908373ffffffffffffffffffffffffffffffffffffffff1602179055508173ffffffffffffffffffffffffffffffffffffffff168173ffffffffffffffffffffffffffffffffffffffff167f8be0079c531659141344cd1fd0a4f28419497f9722a3daafe3b4186f6b6457e060405160405180910390a35050565b6109a08061010d6000396000f3fe608060405234801561001057600080fd5b50600436106100885760003560e01c80638da5cb5b1161005b5780638da5cb5b146101135780639cfe42da14610131578063e4997dc51461014d578063f2fde38b1461016957610088565b80631018aa861461008d578063308abb09146100a957806358d2b4a5146100d9578063715018a614610109575b600080fd5b6100a760048036038101906100a291906107ce565b610185565b005b6100c360048036038101906100be91906107ce565b610263565b6040516100d09190610816565b60405180910390f35b6100f360048036038101906100ee91906107ce565b610283565b6040516101009190610816565b60405180910390f35b6101116102d9565b005b61011b610361565b6040516101289190610840565b60405180910390f35b61014b600480360381019061014691906107ce565b61038a565b005b610167600480360381019061016291906107ce565b610497565b005b610183600480360381019061017e91906107ce565b6105a5565b005b61018d61069c565b73ffffffffffffffffffffffffffffffffffffffff166101ab610361565b73ffffffffffffffffffffffffffffffffffffffff1614610201576040517f08c379a00000000000000000000000000000000000000000000000000000000081526004016101f8906108b8565b60405180910390fd5b600160008273ffffffffffffffffffffffffffffffffffffffff1673ffffffffffffffffffffffffffffffffffffffff16815260200190815260200160002060009054906101000a900460ff1661025757600080fd5b610260816106a4565b50565b60016020528060005260406000206000915054906101000a900460ff1681565b6000600160008373ffffffffffffffffffffffffffffffffffffffff1673ffffffffffffffffffffffffffffffffffffffff16815260200190815260200160002060009054906101000a900460ff169050919050565b6102e161069c565b73ffffffffffffffffffffffffffffffffffffffff166102ff610361565b73ffffffffffffffffffffffffffffffffffffffff1614610355576040517f08c379a000000000000000000000000000000000000000000000000000000000815260040161034c906108b8565b60405180910390fd5b61035f60006106a7565b565b60008060009054906101000a900473ffffffffffffffffffffffffffffffffffffffff16905090565b61039261069c565b73ffffffffffffffffffffffffffffffffffffffff166103b0610361565b73ffffffffffffffffffffffffffffffffffffffff1614610406576040517f08c379a00000000000000000000000000000000000000000000000000000000081526004016103fd906108b8565b60405180910390fd5b60018060008373ffffffffffffffffffffffffffffffffffffffff1673ffffffffffffffffffffffffffffffffffffffff16815260200190815260200160002060006101000a81548160ff0219169083151502179055507f86c048150dfc5def3c35f7bc81582956dd964e56d8c028c9f4f5e978bb203c318160405161048c9190610840565b60405180910390a150565b61049f61069c565b73ffffffffffffffffffffffffffffffffffffffff166104bd610361565b73ffffffffffffffffffffffffffffffffffffffff1614610513576040517f08c379a000000000000000000000000000000000000000000000000000000000815260040161050a906108b8565b60405180910390fd5b6000600160008373ffffffffffffffffffffffffffffffffffffffff1673ffffffffffffffffffffffffffffffffffffffff16815260200190815260200160002060006101000a81548160ff0219169083151502179055507f90792cb7177eb70be35a14e39400d4143370da97f528237fd2b069e408ca68fb8160405161059a9190610840565b60405180910390a150565b6105ad61069c565b73ffffffffffffffffffffffffffffffffffffffff166105cb610361565b73ffffffffffffffffffffffffffffffffffffffff1614610621576040517f08c379a0000000000000000000000000000000000000000000000000000000008152600401610618906108b8565b60405180910390fd5b600073ffffffffffffffffffffffffffffffffffffffff168173ffffffffffffffffffffffffffffffffffffffff1603610690576040517f08c379a00000000000000000000000000000000000000000000000000000000081526004016106879061094a565b60405180910390fd5b610699816106a7565b50565b600033905090565b50565b60008060009054906101000a900473ffffffffffffffffffffffffffffffffffffffff169050816000806101000a81548173ffffffffffffffffffffffffffffffffffffffff021916908373ffffffffffffffffffffffffffffffffffffffff1602179055508173ffffffffffffffffffffffffffffffffffffffff168173ffffffffffffffffffffffffffffffffffffffff167f8be0079c531659141344cd1fd0a4f28419497f9722a3daafe3b4186f6b6457e060405160405180910390a35050565b600080fd5b600073ffffffffffffffffffffffffffffffffffffffff82169050919050565b600061079b82610770565b9050919050565b6107ab81610790565b81146107b657600080fd5b50565b6000813590506107c8816107a2565b92915050565b6000602082840312156107e4576107e361076b565b5b60006107f2848285016107b9565b91505092915050565b60008115159050919050565b610810816107fb565b82525050565b600060208201905061082b6000830184610807565b92915050565b61083a81610790565b82525050565b60006020820190506108556000830184610831565b92915050565b600082825260208201905092915050565b7f4f776e61626c653a2063616c6c6572206973206e6f7420746865206f776e6572600082015250565b60006108a260208361085b565b91506108ad8261086c565b602082019050919050565b600060208201905081810360008301526108d181610895565b9050919050565b7f4f776e61626c653a206e6577206f776e657220697320746865207a65726f206160008201527f6464726573730000000000000000000000000000000000000000000000000000602082015250565b600061093460268361085b565b915061093f826108d8565b604082019050919050565b6000602082019050818103600083015261096381610927565b905091905056fea2646970667358221220373cb41bd9da9ca0395ba262d9efb7c9aa7dc59242c23146b36f76a0b2186e6664736f6c634300080d0033",
  "immutableReferences": {},
  "source": "pragma solidity ^0.8.0;\r\n\r\nimport \"openzeppelin-solidity/contracts/utils/math/SafeMath.sol\";\r\nimport \"openzeppelin-solidity/contracts/access/Ownable.sol\";\r\nimport \"openzeppelin-solidity/contracts/token/ERC20/extensions/ERC20Pausable.sol\";\r\n\r\ncontract Blacklist is Ownable {\r\n    mapping(address => bool) public BlacklistAddresses;\r\n\r\n    function getBlacklistStatus(address _address) external view returns (bool) {\r\n        return BlacklistAddresses[_address];\r\n    }\r\n\r\n    function addBlacklist(address _address) public onlyOwner {\r\n        BlacklistAddresses[_address] = true;\r\n        emit AddedBlacklist(_address);\r\n    }\r\n\r\n    function removeBlackList(address _address) public onlyOwner {\r\n        BlacklistAddresses[_address] = false;\r\n        emit RemovedBlacklist(_address);\r\n    }\r\n\r\n    function removeBlacklistFunds(address _address) public onlyOwner {\r\n        require(BlacklistAddresses[_address]);\r\n        _destroyFunds(_address);\r\n    }\r\n\r\n    function _destroyFunds(address _address) internal virtual {}\r\n\r\n    event DestroyedBlacklistFunds(address _address, uint256 _balance);\r\n\r\n    event AddedBlacklist(address _address);\r\n\r\n    event RemovedBlacklist(address _address);\r\n}\r\n\r\ncontract TetherToken is ERC20Pausable, Blacklist {\r\n    constructor(string memory name, string memory symbol) ERC20(name, symbol) {}\r\n\r\n    function mint(uint256 amount) public onlyOwner {\r\n        _mint(_msgSender(), amount);\r\n    }\r\n\r\n    function burn(uint256 amount) public onlyOwner {\r\n        _burn(_msgSender(), amount);\r\n    }\r\n\r\n    function _destroyFunds(address _address) internal override{\r\n        uint256 fundsToDestroy = balanceOf(_address);\r\n        _burn(_address, fundsToDestroy);\r\n        emit DestroyedBlacklistFunds(_address, fundsToDestroy);\r\n    }\r\n}\r\n",
  "sourcePath": "C:\\Users\\yuriy.paslavskyi\\Desktop\\stablecoins\\Tether(USDT)\\contracts\\TetherToken.sol",
  "compiler": {
    "name": "solc",
    "version": "0.8.13+commit.abaa5c0e.Emscripten.clang"
  },
  "schemaVersion": "3.4.7",
  "updatedAt": "2022-04-28T12:19:48.485Z",
  "devdoc": {
    "kind": "dev",
    "methods": {
      "owner()": {
        "details": "Returns the address of the current owner."
      },
      "renounceOwnership()": {
        "details": "Leaves the contract without owner. It will not be possible to call `onlyOwner` functions anymore. Can only be called by the current owner. NOTE: Renouncing ownership will leave the contract without an owner, thereby removing any functionality that is only available to the owner."
      },
      "transferOwnership(address)": {
        "details": "Transfers ownership of the contract to a new account (`newOwner`). Can only be called by the current owner."
      }
    },
    "version": 1
  },
  "userdoc": {
    "kind": "user",
    "methods": {},
    "version": 1
  }
}